:020000040800F2
:10000000D050002029030008AF3F000865360008E3
:10001000AD3F00085D090008C54D00080000000064
:10002000000000000000000000000000690200085D
:10003000910E000800000000C50200082D440008D1
:100040004303000843030008430300084303000878
:100050004303000843030008930E0008430300080D
:100060004303000843030008990E000843030008F7
:10007000ED0A000843030008F90A000843030008DA
:10008000430300084303000843030008B5090008C0
:100090009D090008A9090008430300089F0E0008F5
:1000A0004303000843030008430300084303000818
:1000B00043030008FD44000843030008430300080D
:1000C000430300084303000843030008F942000803
:1000D00043030008314B000843030008494B000864
:1000E00043030008430300084303000843030008D8
:1000F00043030008430300084303000843030008C8
:1001000043030008430300084303000843030008B7
:1001100043030008430300084303000843030008A7
:1001200043030008050B0008110B0008250B00080D
:10013000430300084303000843030008090A0008BA
:10014000FD090008430300084303000843030008B7
:10015000310B00083D0B0008490B0008154D000845
:100160004303000843030008430300084303000857
:100170004303000843030008430300080000000095
:10018000430300084303000800F002F800F05CF8A5
:100190000AA090E8000C82448344AAF10107DA45E2
:1001A00001D100F051F8AFF2090EBAE80F0013F0D8
:1001B000010F18BFFB1A43F00103184798A2000073
:1001C000B8A200000A444FF0000C10F8013B13F0F5
:1001D000070408BF10F8014B1D1108BF10F8015BA0
:1001E000641E05D010F8016B641E01F8016BF9D193
:1001F00013F0080F1EBF10F8014BAD1C0C1B09D1EA
:100200006D1E58BF01F801CBFAD505E014F8016B5B
:1002100001F8016B6D1EF9D59142D6D370470000ED
:100220000023002400250026103A28BF78C1FBD8FF
:10023000520728BF30C148BF0B6070471FB509F097
:10024000F8FE1FBD10B510BD00F094F91146FFF780
:10025000F5FF07F041FD00F0B2F903B4FFF7F2FF3C
:1002600003BC00F0B5F900002C4B19680868B0E831
:10027000F04F80F30988BFF36F8F4FF0000080F3D9
:10028000118870470000000008480068006880F38B
:1002900008884FF0000080F3148862B661B6BFF39F
:1002A0004F8FBFF36F8F00DF00BF00BF08ED00E08E
:1002B000DFF80C00016841F470010160704700BF75
:1002C00088ED00E0EFF30980BFF36F8F134B1A68DE
:1002D0001EF0100F08BF20ED108A20E9F04F1060CB
:1002E00009B44FF0500080F31188BFF34F8FBFF374
:1002F0006F8F08F037FE4FF0000080F3118809BCC3
:1003000019680868B0E8F04F1EF0100F08BFB0EC95
:10031000108A80F30988BFF36F8F70473400002084
:10032000EFF30580704700000948804709480047FF
:10033000FEE7FEE7FEE7FEE7FEE7FEE7FEE7FEE795
:10034000FEE7FEE704480549054A064B70470000F2
:10035000ED44000889010008D04A0020D050002058
:10036000D04C0020D04C002053EA020C00F06980F1
:100370002DE9F04B4FF00006002B1FBFB3FA83F5B9
:1003800003FA05F424FA05F65E4012BF1643B2FAEA
:1003900082F502FA05F4C5F120051EBF22FA05FC1C
:1003A00044EA0C04203556EA044C4FEA144418BFC2
:1003B000641C4FF000084FF00009904271EB030CF1
:1003C00039D3002919BFB1FA81F701FA07F6B0FA5B
:1003D00080F700FA07F6C7F120071EBF20FA07FCD6
:1003E00046EA0C062037B6FBF4FCA7EB0507103FE6
:1003F00007F01F0BCBF120060CFA0BFB2CFA06F6CC
:1004000044BFB3460026202FA4BF5E464FF0000B2A
:100410005BEA060C08BF4FF0010B19EB0B09ABFBB5
:10042000027C48EB0608C01B06FB02CC0BFB03CC8E
:1004300071EB0C01C1E70B46024641464846BDE858
:10044000F08B13B54FF000004FF00001AFF30080C8
:10045000BDE81C40704710B5431C02E010F8011BBA
:1004600071B18107FAD14FF0013202C88C1A8C4366
:1004700014EAC211F9D0C01A0A0603D0C01E10BD7A
:10048000C01A10BD0A0401D0801E10BD0902FCD0A4
:10049000401E10BD10B5203AC0F00B80B1E81850D6
:1004A000203AA0E81850B1E81850A0E81850BFF45E
:1004B000F5AF5FEA027C24BFB1E81850A0E81850FD
:1004C00044BF18C918C0BDE810405FEA827C24BF51
:1004D00051F8043B40F8043B08BF7047D20728BFDF
:1004E00031F8023B48BF11F8012B28BF20F8023B2E
:1004F00048BF00F8012B70474FF0000200B51346CB
:1005000094469646203922BFA0E80C50A0E80C5033
:10051000B1F12001BFF4F7AF090728BFA0E80C50E4
:1005200048BF0CC05DF804EB890028BF40F8042BDD
:1005300008BF704748BF20F8022B11F0804F18BF4A
:1005400000F8012B704770477047704710B500F0F6
:1005500009F8006810BD10B5044600F003F8046007
:1005600010BD0000004870476C4A002000487047EA
:100570006C4A00207546FFF7F9FFAE460500694654
:10058000534620F00700854618B020B5FFF7DAFE85
:10059000BDE820404FF000064FF000074FF0000884
:1005A0004FF0000B21F00701AC46ACE8C009ACE805
:1005B000C009ACE8C009ACE8C0098D46704710B569
:1005C0000446AFF300802046BDE81040FFF745BE6B
:1005D00001491820ABBEFEE726000200704700006C
:1005E000B7EE000A80ED000A9FED040A80ED010AD3
:1005F00080ED020A80ED030A704700000000000051
:1006000001221021014801F073BB000000000240EC
:1006100000221021014801F06BBB000000000240E5
:100620007047000001221146014801F061BB000043
:100630000004024000220121014801F059BB0000E2
:100640000004024030B5437804781B021BB22343F8
:1006500000EE103A1B4CB8EEC00AD4ED010A20EEB1
:10066000200A81ED000AC37885781B021BB22B4358
:1006700000EE103AD4ED010AB8EEC00A20EE200ACE
:1006800081ED010A437904791B021BB2234300EE7A
:10069000103AB8EEC00A20EE200ADFED0B0A81ED19
:1006A000020A017AC3790904807941EA03210143EE
:1006B00000EE101AB8EE400A20EE200A82ED000A81
:1006C00030BD00000801002000401C42704707F0C8
:1006D0008DBB07F009B9000010B54278037812020B
:1006E00012B21A4300EE102A124BB8EEC00AD3ED34
:1006F000020A20EE200A81ED000AC27884781202F4
:1007000012B2224300EE102AD3ED020AB8EEC00A5C
:1007100020EE200A81ED010A42790079120212B21C
:10072000024300EE102AB8EEC00A20EE200A81ED46
:10073000020A10BD0801002010B5FFF771FFFFF796
:10074000C5FF06F0F3FA08B1802402E006F05AFA79
:10075000044606F0C3FC10B144F0400010BD06F0A2
:100760004FFC204310BD00002DE9FC41074600204E
:1007700016460D4600900190FFF74AFF922000F0C8
:10078000BDF806226946122000F09AF8FFF738FFFC
:100790009DF801009DF80010000200B2084300EE31
:1007A000100A464CB8EEC00AD4ED010A20EE200A29
:1007B00085ED000A9DF803009DF80210000200B2CA
:1007C000084300EE100AD4ED010AB8EEC00A20EE8C
:1007D000200A85ED010A9DF805009DF8041000022D
:1007E00000B2084300EE100AB8EEC00A20EE200A5C
:1007F00085ED020AFFF71EFF08226946002000F07F
:100800005FF8FFF70FFF9DF800000F2830D19DF82B
:1008100003009DF80210000200B2084300EE100A27
:10082000D4ED020AB8EEC00A20EE200A87ED000AD5
:100830009DF805009DF80410000200B2084300EE88
:10084000100AD4ED020AB8EEC00A20EE200A87EDA5
:10085000010A9DF807009DF80610000200B2084347
:1008600000EE100AB8EEC00A20EE200A87ED020A58
:10087000FFF7CEFEA22000F041F8022269462220B6
:1008800000F01EF8FFF7BCFE9DF800009DF8011077
:10089000C00040EA5110B0F5806F01DBA0F50060A8
:1008A00000EE100AB4EE001AF8EEC00AB3EE070A22
:1008B00000EE810A86ED000ABDE8FC8108010020F7
:1008C00070B514460D4640F0800000F017F806E0C1
:1008D000552000F013F8641E05F8010BE4B2002C5B
:1008E000F6D170BD10B50C4640F0800000F006F85F
:1008F000552000F003F8207010BD000001B582B053
:100900004FF47A700090012301AA02A9024801F075
:10091000F9FF9DF804000EBDC8060020027840785B
:10092000D20042EA5010B0F5806F01DBA0F5006004
:1009300000EE100AB4EE001AF8EEC00AB3EE070A91
:1009400000EE810A81ED000A704710B50C46FFF7F2
:10095000D5FF2046BDE81040FFF7D0BFFEE70000FE
:1009600000B58BB000200121CDE906010590009073
:1009700001900290039004900E20CDE90810694682
:10098000054800F011FB0221034800F08DFA0248EF
:1009900000F074FE0BB000BD24060020014800F0FA
:1009A000FEBB000024060020014800F0F8BB000058
:1009B00024060020014800F0F2BB000024060020BD
:1009C00000B58BB001220E2100200792CDE9051061
:1009D00003900490CDE908210090019002906946AF
:1009E000054800F0E1FA0221034800F05DFA0248F0
:1009F00000F044FE0BB000BD4C060020014800F0A2
:100A0000CEBB00004C060020014800F0C8BB00002F
:100A10004C0600202DED0A8B00252C462F48304E29
:100A200000F10C01D0ED00BA90ED01BAD0ED02AAB0
:100A300090ED06CA90ED078AD0ED088AA6F580777A
:100A400091EC039AA6F1800806EB4410B0EE6A1A06
:100A5000F0EE4B0AB0EE6B0A07F0C1FAB0EE4A1A9C
:100A6000F0EE690AB0EE490A07EB441007F0B7FA56
:100A7000B0EE681AF0EE480AB0EE4C0A08EB4410EB
:100A800007F0ADFA641C042CDEDB164C164E41F662
:100A90008B6740F2427840F6DD6941F2676A278051
:100AA000A4F80280A4F80490A4F806A06D1CB07A03
:100AB000012804D0032805D0022806D007E007F05B
:100AC00095FF04E006F0EEFB01E007F0BFFD0A2011
:100AD00007F08CF9002DEAD1E1E7000038A1000809
:100AE000D00200200A0000206C480020014800F0DD
:100AF00053BE0000B4090020014800F04DBE0000C4
:100B0000140A0020014800F047BE0000740A0020CB
:100B100010B504F005F9BDE81040014800F03CBEF6
:100B200080070020014800F037BE000020070020A9
:100B3000014800F031BE0000F4080020014800F038
:100B40002BBE0000D40A0020014800F025BE0000A2
:100B5000540900202DE9F04F85680024099E802D5E
:100B600018D0894DC563894D456490F83450012DE6
:100B700015D0012580F8345090F83550012D10D053
:100B8000002180F834100224002180F8341020461F
:100B9000BDE8F08F4FF4807141650120F8E7022035
:100BA000F6E7022580F835500025456505682F6871
:100BB00047F480272F6005682B6103685E608368B7
:100BC000402B03682AD099600168CA60714D704E4D
:100BD000704FDFF8BC81DFF8B891DFF8B8A1DFF81B
:100BE000B4B1EA14DFF8A8E101681836303793028F
:100BF000A9F148090AF1600A0BF1180BAEF1300EA9
:100C00004FF0006C41452DD9A94205D0494503D08C
:100C1000514501D0B14205D1202220E09A600268FE
:100C2000D160D3E759451AD0714518D0594D783560
:100C3000A94214D0564D3035A94210D0B9420BD03C
:100C4000534A183A914207D0524A9032914203D007
:100C50004F4A4832914201D11A4600E062464C495F
:100C60004C392EE0DFF82C8108F1A80841452AD93B
:100C7000A94205D0494503D0514501D0B14201D127
:100C800020221CE059451AD0714518D0414D7835C5
:100C9000A94214D03E4D3035A94210D0B9420BD0F4
:100CA0003B4A183A914207D03A4A9032914203D0D7
:100CB000374A4832914201D11A4600E0624634492F
:100CC00050390A605AE0DFF8CC8008F14808414505
:100CD0002AD9A94205D0494503D0514501D0B14296
:100CE00001D120221CE059451AD0714518D0294D58
:100CF0007835A94214D0264D3035A94210D0B942DA
:100D00000BD0234A183A914207D0224A903291429E
:100D100003D01F4A4832914201D11A4600E0624690
:100D20001C491039CA6029E0A94205D0494503D0C1
:100D3000514501D0B14201D120221CE059451AD0C1
:100D4000714518D0134D7835A94214D0104D303567
:100D5000A94210D0B9420BD00D4A183A914207D09F
:100D60000C4A9032914203D0094A4832914201D153
:100D70001A4600E06246074910398A6001680A682D
:100D800042F001020A60FFE61D790008417900087F
:100D9000586402401060024001681823CAB2103A39
:100DA000B2FBF3F2054B6FF30901032A9B5CC365A9
:100DB00000D9091D8165084670470000B0A10008F0
:100DC00010B5014600208B698A6A4FF0C07453B198
:100DD000B3F5005F15D072B1012A0CD0022A0AD0F7
:100DE000032A09D104E01AB1012A06D0022A03D14C
:100DF000C96AC90100D5012010BDC96AA142FAD053
:100E000010BD002AF7D0012AF2D0022AF3D0032A1B
:100E1000F3D010BD30B50468256825F48025256021
:100E2000046863608368402B036803D0996000689E
:100E3000C26030BD9A600068C16030BD094A016877
:100E400082B091420BD1084909680A68D243D206A0
:100E500005D40A684968009102B002F0CDBB02B027
:100E600070470000001001402808002010B50168FC
:100E70000A68D20608D5C968C90605D507F066FE16
:100E800002480168491C016010BD0000DC00002020
:100E90007047012000F028BE102000F025BE202061
:100EA00000F022BE72B6FEE790F82020012A07D09B
:100EB000022A05D0416A41F4802141620120704735
:100EC000006842690A43426100207047F0B590F81B
:100ED00020500468A468012D05D0022D03D0416A7A
:100EE00041F480215DE014F0406F01D1E50055D55B
:100EF000C4F30164022C03D9416A41F4000150E0BB
:100F00000125A5401D608D684FF4C0739DB1CE686A
:100F100035434E6845EAC605066803EB0417F551EC
:100F20004FF4C275076805EB04150E697E51097D03
:100F3000012905D009E00E88CD6845EA4655EBE762
:100F400001684E5946F480764E511179D57956791B
:100F500041EA056195792D0445EA062529434FF4B8
:100F6000C676056806EB0416A9511178D57841EAD2
:100F70000561957852782D0445EA022211434FF419
:100F8000C475026805EB04155151006803EB0411A8
:100F9000425842F0010242500020F0BD416A41F443
:100FA000001141620120F0BD10B590F82020012A07
:100FB00007D0022A05D0416A41F480214162012014
:100FC00010BD3B48D0F8002242F00102C0F80022D8
:100FD000D0F8002222F47C52C0F80022D0F800227F
:100FE0004B6A42EA0322C0F800220A7D02F01F0386
:100FF00001229A40D0F81C329343C0F81C32CB69CE
:10100000B3B9D0F80C329343C0F80C328C894B68DA
:1010100064F31F434C6900EBC404C4F840320C89EC
:101020000B6864F31F434C6900EBC404C4F84432FA
:10103000CB69012B16D1D0F80C321343C0F80C3217
:101040000C884B6864F31F434C6900EBC404C4F87C
:1010500040320C89CB6864F31F434C6900EBC40435
:10106000C4F844328B69002BD0F804320ED01343FD
:10107000C0F804320B69002BD0F8143208D01343A7
:10108000C0F81432096A012904D008E09343EFE75D
:101090009343F5E7D0F81C121143C0F81C12D0F8A6
:1010A000001221F00101C0F80012002010BD000064
:1010B00000640040704730B590F82040012C05D006
:1010C000022C03D0416A41F480215DE004680029CC
:1010D00055D02469A40754D04FF4D874056804EBA4
:1010E00001142D5915F00405956005682D594ED051
:1010F000ED08556005682C5904F00204D4604FF4E3
:10110000DA74056804EB01142D5905F00F0515611B
:1011100005682D59C5F30725956105682C59240CE0
:1011200054614FF4DC72046802EB0112A4581C7085
:101130000468A458240A5C700468A458240C9C70A9
:101140000468A258120EDA704FF4DE72046802EBE3
:101150000112A4581C710468A458240A5C71046824
:10116000A458240C9C710468A258120EDA7100680D
:1011700081B1016941F020010161002030BDE468C6
:10118000A8E7416A41F400114162012030BD6D0DB4
:101190001560AFE7C16841F02001C160EDE72DE9BE
:1011A000F05F0546006800244669D0F8049087681F
:1011B000D0F80CB0D0F810A0D0F81880F10748D0C3
:1011C000F90714D001218160B80703D5284600F043
:1011D00082FA0CE0780702D54FF4006407E0380784
:1011E00002D54FF4805402E0284600F073FAF80567
:1011F00016D529684FF480708860B80503D5284655
:1012000000F06BFA0CE0780502D544F4005407E0D6
:10121000380502D544F4804402E0284600F05CFA28
:10122000F80316D529684FF480308860B80303D5D9
:10123000284600F054FA0CE0780302D544F4004448
:1012400007E0380302D544F4803402E0284600F079
:1012500045FA300707D55FEACB6004D5296810202E
:1012600044F40074C86070074FF0080707D55FEAC0
:101270000B7004D52868C760284600F0B1F9B007A4
:1012800006D52868C068800702D0284600F0AAF971
:10129000700607D55FEACA6004D52968102044F4B7
:1012A00080640861B00607D55FEA0A7004D5286833
:1012B0000761284600F0DEF9F00606D528680069C7
:1012C000800702D0284600F0D6F9B00308D55FEABF
:1012D000C96005D5296810204860284600F0CCF97F
:1012E000F00307D55FEA097004D5286847602846EF
:1012F00000F0F6F9300446D55FEA497040D5F005B4
:1013000004D55FEAC87001D044F00104B00504D5EB
:101310005FEA887001D544F00204700504D55FEAE5
:10132000487001D544F00404300529D518F0700F39
:1013300026D008F07000402815D006DC102809D00F
:1013400020280AD0302816D10AE050280ED0602874
:1013500011D10EE044F008040DE044F010040AE05E
:1013600044F0200407E044F0400404E044F080042A
:1013700001E044F480742868816921F07001816182
:10138000296804204860002C05D0686A2043686200
:101390002846FFF78FFEBDE8F09F70B5040003D02C
:1013A00094F8200010B104E0012070BD204600F048
:1013B00081F82068016841F00101016000F09EFCA5
:1013C0000546052604E000F099FC401B0A2811D8C8
:1013D00020684068C007F6D02068016821F002014B
:1013E000016000F08BFC05460BE000F087FC401B21
:1013F0000A2806D9606A40F40030606284F82060F0
:10140000D2E7206840688007EFD4207E012820685A
:1014100001683DD021F080010160607E01282068D4
:10142000016838D021F040010160A07E01282068C9
:10143000016833D021F020010160E07E012820689E
:1014400001682ED041F010010160207F0128206842
:10145000016829D021F008010160607F012820681F
:10146000016824D021F004010160D4E9020108439D
:10147000D4E90412114308436168491E08432168F6
:10148000C86100206062012084F82000002070BD47
:1014900041F08001C0E741F04001C5E741F0200183
:1014A000CAE721F01001CFE741F00801D4E741F08D
:1014B0000401D9E7F0B587B0044614216846FFF768
:1014C0001BF8424B4248DFF800E11968D4F800C02D
:1014D0003F4A03250226092710300024491CF44501
:1014E00032D11960012907D1016841F00071016012
:1014F000006800F000700590106840F0080010606F
:101500001068CDE9005600F00800CDE90470694686
:101510003048CDE9024500F0F3FA002205211320FE
:1015200000F098FD132000F087FD00220521142013
:1015300000F090FD142000F07FFD00220521152011
:1015400000F088FD15203AE0DFF88CE0F44538D152
:10155000D0F800C04CF0806CC0F800C0D0F800C0DB
:1015600001290CF0806CCDF814C0196007D1016816
:1015700041F000710160006800F000700590106893
:1015800040F002001060106802AB00F0020005900D
:101590006020CDE9000683E8B00069460F4800F0FE
:1015A000AFFA002205213F2000F054FD3F2000F05B
:1015B00043FD00220521402000F04CFD402000F0BA
:1015C0003BFD07B0F0BD000000640040200000209B
:1015D00030380240000C0240006800400004024025
:1015E0007047000030B5214A01688BB091423BD171
:1015F00002AB04AA0021FFF75EFD04980446A0F2A6
:101600000120072815D8C5B2BDF8080040BA08F077
:1016100059F9174A02EB0512C2E90001BDF80A00A8
:1016200040BA1081BDF80C0040BA50819DF80E0000
:101630009081A4F20924022C16D8BDF80800E4B267
:1016400040BA08F03FF90A4A803202EB0412C2E9BC
:101650000001BDF80A0040BA1081BDF80C0040BA84
:1016600050819DF80E0090810BB030BD00680040A5
:10167000D8480020704770477047000070B5044696
:1016800090F82000012804D0606A40F400206062D5
:1016900018E0022084F820002068016821F0010190
:1016A000016000F02BFB05460EE000BF00F026FBBA
:1016B000401B0A2808D9606A40F4003060620520A7
:1016C00084F82000012070BD20684068C007EDD17B
:1016D000606270BD704770477047704770477047D1
:1016E00070472DE9F0410446876D00F007FB064680
:1016F00094F835000025022806D08020606584F823
:1017000034500120BDE8F0812068016821F0160105
:1017100001602068416921F080014161206C08B9B5
:10172000A06C20B12068016821F0080101602068E8
:10173000016821F0010101600CE000F0DFFA801B7C
:10174000052807D920206065032084F8350084F837
:101750003450D7E720680068C007EED194F85C10D9
:101760003F208840B860012084F8350084F8345068
:101770000020C7E790F83510022903D08021416589
:1017800001207047052180F835100068016821F0BC
:1017900001010160002070472DE9F84304464FF035
:1017A0000009CDF8009063484FF41651A56D00680C
:1017B000B0FBF1F72E6894F85C10082000FA01F1F4
:1017C00031420FD021680A6852070BD50A6822F00F
:1017D00004020A6094F85C108840A860606D40F0D4
:1017E0000100606594F85C104FF0010808FA01F000
:1017F000304208D021684969090604D5A860606DA7
:1018000040F00200606594F85C100420884030428B
:1018100008D021680968890704D5A860606D40F088
:101820000400606594F85C1010208840304218D0A5
:1018300021680968090714D5A86020680168490370
:1018400004D50068000308D5A16C07E00168C9054C
:1018500003D4016821F008010160216C09B1204620
:10186000884794F85C1020208840304231D02168AD
:101870000968C9062DD5A86094F8350005282068A8
:10188000016806D0490347D5006800031DD4616C88
:101890001CE021F0160101602068416921F08001FF
:1018A0004161206C08B9A06C20B12068016821F06A
:1018B0000801016094F85C103F208840A86084F81B
:1018C000358084F83490216D1FE0E16B09B120462A
:1018D0008847606D00282BD0606DC00714D00520AC
:1018E00084F835002068016821F00101016000984A
:1018F000401C0090B84203D820680068C007F6D1A9
:1019000084F8358084F83490E16C002910D001B05F
:101910002046BDE8F04308470168C905D5D40168F1
:1019200021F01001016084F8358084F83490CCE710
:10193000BDE8F883300000202DE9F041044600F0B6
:10194000DDF906465CB1022084F83500002584F8F4
:1019500034502068016821F0010101600DE0012090
:10196000BDE8F08100F0CAF9801B052805D92020C8
:101970006065032084F83500F2E720680068C0073E
:10198000F0D12268116820480140D4E901031843CE
:10199000D4E903363343184363691843A3691843F2
:1019A000E3691843236A18430843616A042903D191
:1019B000D4E90B1319430843106020684069666A34
:1019C00020F0070130460E43012704280CD1A06AFD
:1019D0000643E06A40B12046FFF7F2F920B140200B
:1019E000606584F83570BAE7206846612046FFF7E5
:1019F000D3F994F85C203F2191408160656584F8BB
:101A000035700020ACE700003F8010F02DE9F04178
:101A10000446866D90F83400002501280DD0012081
:101A200084F8340094F835700020012F07D084F832
:101A3000340002252846BDE8F0810220FBE702279A
:101A400084F8357060652046FFF7E4F994F85C107F
:101A50003F208840B0602068016841F016010160B5
:101A6000206C20B12068016841F008010160206805
:101A7000016841F001010160DCE7000010B5184C7D
:101A8000102818D020281FD0012813D107F0ACFB54
:101A900001280FD004F12001606A07F0CBF9206A19
:101AA000002807D00F494FF080500860BFF34F8FD8
:101AB000BFF36F8F10BD607840F001006070A078B8
:101AC00040F00100A07003E0207840F00100207099
:101AD000E0780028EED0BDE8104006F01BB800000A
:101AE0004001002004ED00E0044910B50A680242FC
:101AF00002D00860FFF7C2FF10BD0000143C014097
:101B00002DE9F84FDFF8BCA10022012503264FF094
:101B10000F090AF1040BAAF1040E00BF0B6805FAC5
:101B200002F42340A34270D10F7907F00307012F7D
:101B300001D0022F16D187684FEA420806FA08FC46
:101B400027EA0C07D1F80CC00CFA08FC4CEA070C89
:101B5000C0F808C04768A7430C79C4F30014944048
:101B60003C4344600C79E443A4070AD0C4684FEABC
:101B7000420C06FA0CF7BC438F6807FA0CF72743B0
:101B8000C7600C7904F00304022C12D1D40800EBD6
:101B9000840CDCF820405707FF0E09FA07F824EA06
:101BA0000804D1F8108008FA07F848EA0408CCF8CD
:101BB000208004684FEA420C06FA0CF7BC430F7908
:101BC00007F0030707FA0CF7274307604C6814F483
:101BD000403F70D03C4C276847F48047276024681A
:101BE00022F0030704F480440094384C07EB040C03
:101BF000DCF8084897074FEA177809FA08F7BC435A
:101C0000334FB84202D1002724E054E0314FB842AC
:101C100001D101271EE0304FB84201D1022719E05F
:101C20002E4FB84201D1032714E02D4FB84201D105
:101C300004270FE02B4FB84201D105270AE02A4FB5
:101C4000B84201D1062705E0284FB84201D1072745
:101C500000E0082707FA08F72743CCF80878DAF8F5
:101C600000405746D1F804C09C435FEACC2C00D515
:101C70001C433C60DBF800405F46D1F804C09C4345
:101C80005FEA8C2C00D51C433C60DEF800407746B0
:101C9000D1F804C09C435FEA8C3C00D51C433C60F7
:101CA000084F083F3C68D1F804C09C435FEACC3C35
:101CB00000D51C433C60521C102AFFF42FAFBDE836
:101CC000F88F0000083C01404438024000300140D9
:101CD000000002400004024000080240000C0240E4
:101CE000001002400014024000180240001C024094
:101CF0000AB1816170470904FBE700000148806870
:101D0000704700002400002070B5040025D094F82E
:101D10003D00002520B984F83C50204600F0B8F87A
:101D2000242084F83D002068016821F00101016051
:101D30002068016841F4004101602068016821F4D5
:101D40000041016000F072FA4D4A6168914201D889
:101D50004C4900E04C49884201D2012070BD4B49FA
:101D60002368B0FBF1F15E6826F03F060E435E602B
:101D70006368934206D94FF4967359434FF47A73CC
:101D8000B1FBF3F12368491C1E6A26F03F0631437C
:101D900019626168914210D84900401EB0FBF1F20F
:101DA000521CC2F30B02042A01D2042022E0B0FB31
:101DB000F1F0401CC0F30B001CE0A268F2B301EB91
:101DC000C10303EB0116431EB3FBF6F35B1C43F4A4
:101DD00080431B0549D092B301EBC10202EB011114
:101DE000401EB0FBF1F0401CC0F30B0040F48040FB
:101DF00040F400402168CA694CF6FF739A431043CF
:101E0000C861D4E9071001432068026822F0C002CB
:101E100011430160D4E9030101432068826848F25C
:101E2000FF339A4311438160D4E9050108432168D7
:101E3000CA6822F0FF021043C86001E00EE016E01D
:101E40002068016841F0010101602564202084F8C8
:101E50003D00256384F83E50002070BD01EB410633
:101E6000431EB3FBF6F35B1CB3E70120C2E701EBB3
:101E70004101401EB0FBF1F0401CC0F30B00B7E77E
:101E8000A086010080841E0000093D0040420F0032
:101E9000F0B587B0044614216846FEF72DFB1D49B6
:101EA0002068884233D11C480024016841F00401B5
:101EB0000160016801F004010591016841F0010130
:101EC00001600068122500F0010005904FF40070D9
:101ED000CDE9000502AA0326042782E8D00069465E
:101EE0000E48FFF70DFEB801CDE9000502AA6946CC
:101EF00082E8D0000A48FFF703FE07481030016867
:101F000041F400010160006800F40000059007B092
:101F1000F0BD0000005C0040303802400008024084
:101F200000000240024881680278114481607047D5
:101F3000240000200B4810B5016841F400710160D5
:101F4000016841F480610160016841F480710160C1
:101F5000032000F09FF80F2000F006F800F050F882
:101F6000002010BD003C024030B505461F4887B038
:101F70000024016841F002010160006806A900F038
:101F80000200009001A800F031F90498A8B100F017
:101F90004DF940001649174AB0FBF1F11648491EA9
:101FA000026040F2E732C0E90324C0E90114846111
:101FB00000F09BFD040003D015E000F037F9E9E7DD
:101FC0000D4800F0D3FD04000DD11D2000F034F8C1
:101FD000102D07D2002229461D2000F03BF80748AB
:101FE000056000E0012407B0204630BD40380240C3
:101FF00040420F0000040040340B00202800002065
:102000000C4882B0016841F480410160006800F42E
:10201000804000900748001F016841F08051016036
:102020000068002200F0805000900F21901E02B046
:1020300000F010B844380240002809DB00F01F020D
:10204000012191404009800000F1E020C0F800111A
:1020500070470000F0B40E4B1B680C46C3F302231C
:10206000C3F10705042D00D90425191D072901D244
:10207000002300E0DB1E012606FA05F1491E21407F
:1020800099409E40761E16403143F0BC02F0C6BE19
:102090000CED00E0064900F0070208684FF6FF0368
:1020A000184040EA0220034A1043086070470000CD
:1020B0000CED00E00000FA052DE9F0470E460500A2
:1020C00065D0DFF81481D8F80000F7B200F00700FF
:1020D000B04207D288F80070D8F8000000F007007E
:1020E000B04254D128683D4C810712D5400703D532
:1020F000206840F4E05020602878000703D520686D
:1021000040F4604020602068A96820F0F000084397
:1021100020602878C0072DD0304968680839012828
:1021200012D0022813D0032811D00968890700298A
:102130002DDA216821F0030101432160FFF7DEFD64
:10214000814641F2883A0EE009688903EFE70968A1
:102150008901ECE7FFF7D2FDA0EB0901514502D957
:102160000320BDE8F0872068696800F00C00B0EB40
:10217000810FEFD1D8F80010404601F00701B142BD
:1021800007D90770006800F00700B04201D00120B5
:10219000E7E72878400705D52068E96820F4E05093
:1021A000084320602878000706D52068296920F4B4
:1021B000604040EAC100206000F058F82168084AF9
:1021C000C1F30311515CC840064908600648006825
:1021D000FFF7CAFE0020C4E7003C02400838024076
:1021E000B8A1000830000020280000200F22026063
:1021F0000C4A136803F003034360136803F0F00311
:102200008360136803F4E053C36012684FF4E05333
:1022100003EAD20202610448006800F00700086087
:102220007047000008380240003C0240044805495D
:1022300000680968044AC1F38221515CC8407047B4
:102240003000002008380240C8A1000804480549B1
:1022500000680968044AC1F34231515CC8407047C4
:102260003000002008380240C8A10008154810B509
:10227000006810F00C02144813D01449042A0FD03F
:10228000082A0ED10F4C241F2268236802F03F0257
:102290005B0207D52068C0F38810A0FB010106E0AF
:1022A000084610BD2168C1F38811A1FB000100237D
:1022B000FEF75AF82168C1F30141491C4900B0FBFF
:1022C000F1F010BD083802400024F400001BB700F4
:1022D0002DE9F84F04006ED02078DFF84C93C0074A
:1022E000A9F104054AD009F104000168C1F3810194
:1022F000012908D00068C0F3810002280AD1D9F86A
:102300000000400206D52868800337D560680028A1
:10231000E1D033E06068B0F5803F10D0B0F5A02F79
:10232000286810D020F480302860286820F48020AD
:1023300028606068A8B1FFF7E1FC06460DE0286858
:1023400040F48030F4E740F480202860F7E700BFD5
:10235000FFF7D4FC801B642873D828688003F7D566
:102360000CE0FFF7CBFC064605E000BFFFF7C6FC1C
:10237000801B6428F0D828688003F7D42078DFF821
:10238000AC8280074FF0000A3ED5A748001D0168C7
:1023900011F00C0F08D00068C0F3810002280BD1A7
:1023A000D9F80000400207D42868800716D5E068F5
:1023B000012800D112E033E1E068B8B10120C8F88B
:1023C0000000FFF79BFC064605E000BFFFF796FC08
:1023D000801B0228C0D828688007F7D528682169A3
:1023E00020F0F80040EAC10028600DE0C8F800A025
:1023F000FFF784FC064604E0FFF780FC801B022800
:102400001FD828688007F7D42078000722D5864F88
:1024100087486169703771B101210160FFF76EFC77
:10242000064604E0FFF76AFC801B022809D83868DA
:102430008007F7D50EE0C0F800A0FFF75FFC064666
:1024400005E082E0FFF75AFC801B02287DD838683F
:102450008007F7D42078400768D5DFF8CCB1002793
:102460000BF13C0BDBF80000C0000BD4DBF80010D4
:1024700041F08051CBF80010DBF80000012700F09C
:10248000805000906B4E3068C00510D4306840F426
:1024900080703060FFF732FC009005E0FFF72EFC03
:1024A0000099401A022850D83068C005F6D55E4E13
:1024B000A0686C3601280FD00528306810D020F0B5
:1024C00001003060306820F004003060A068B8B1CE
:1024D000FFF714FC00900FE0306840F00100F4E7D3
:1024E00040F004003060F7E7FFF708FC0099411A5C
:1024F00041F28830814266D830688007F4D50EE01A
:10250000FFF7FCFB009007E0FFF7F8FB0099411A8A
:1025100041F28830814256D830688007F4D42FB118
:10252000DBF8001021F08051CBF80010A069C8B38F
:102530003D49091D0968C1F3810102294AD00228D9
:10254000504607D0C8F8600000E03CE0FFF7D6FB3B
:1025500004463BE04746C8F86000FFF7CFFB06465D
:1025600005E000BFFFF7CAFB801B02282BD82868B4
:102570008001F7D4D4E907010843A16A2E4A49082B
:1025800002EB0141626A41EA8211084394F82C107F
:1025900040EA0161C9F8001001203866FFF7AEFB80
:1025A000044606E03EE000BFFFF7A8FB001B022840
:1025B00009D828688001F7D534E000BFFFF79EFBFB
:1025C000001B022802D90320BDE8F88F286880018B
:1025D000F4D427E00128F7D0D9F80000E26900F42C
:1025E000800191421CD1226A00F03F01914217D133
:1025F00047F6C071626A0140B1EB821F10D1A26A36
:102600004FF0FF3300F4403103EB5202B1EB024FC5
:1026100006D194F82C1000F07060B0EB016F01D07F
:102620000120D1E70020CFE70438024000004742F4
:10263000800E4742007000400000FFFF704700001E
:1026400038B5016804464A688868C043430606D521
:10265000C30704D1D3435B0601D4216C05E0830793
:1026600008D4D3431B0605D4616C01B02046BDE8F5
:1026700030400847830603D5430601D5C30551D42E
:10268000D3439B064ED443060AD494F85130032B0F
:1026900049D0636D43F004036365CB688B68009396
:1026A000830609D4636D43F0010363658B6800936F
:1026B0000B6823F040030B60C00506D4606D40F04A
:1026C00008006065206880680090606D002829D04F
:1026D0002068416821F0E0014160012084F8510048
:1026E000900701D4D00722D02068416821F003016F
:1026F0004160114DE06C40B10565E06CFFF73AF8C0
:1027000018B1606D40F040006065A06C002809D0F1
:102710000565A06CFFF72EF8002803D0606D40F02F
:102720004000606538BDC8688868009038BD2046A4
:10273000FFF784FF38BD00000543000870B50400B2
:1027400009D0606A002540B125616561A56294F8F1
:10275000510040B10CE0012070BD6068B0F5827F8F
:10276000F4D0E561F2E784F85050204600F044F8D8
:10277000022084F851002068016821F040010160C6
:10278000A088218900F4827001F404410843A189E2
:1027900001F400610843217C01F002010843217D1E
:1027A00001F001010843218B01F400710843217FEE
:1027B00001F03801084394F8201001F0800108432B
:1027C000218D01F40051084321680860A0690421AB
:1027D00001EA104094F8241001F010010843216828
:1027E00048602068C16921F40061C161656501200C
:1027F00084F85100002070BD2DE9F04387B00646F3
:1028000014216846FDF778FE38493068884269D15E
:1028100037480025016841F480510160006800F4E8
:102820008050059032481438016841F0020101607F
:10283000016801F002010591016841F001010160A8
:102840000068022400F001000590182001274FF0D5
:1028500003084FF005098DE8910369462548FFF705
:102860004FF980208DE8910369462348FFF748F926
:10287000234C22484FF0C067E4E8020740204FF4A1
:102880008068A4E82101C00244F81459A561C4E994
:1028900007501B486562FFF74FF808B1FEF702FBCF
:1028A000B464A663164C1548603418382060C4E937
:1028B0000175C4E9035865614FF44030A561C4E96E
:1028C000075020466562FFF737F808B1FEF7EAFACD
:1028D000F464002205212320A663FFF7BBFB23201D
:1028E000FFF7AAFB07B0BDE8F0830000003001400D
:1028F0004438024000040240000002405864024094
:10290000200700202DE9F84F044690F850000027DA
:102910000A9E1D4692468B464FF0010901280ED0B3
:10292000012084F85000FFF7E9F9804694F851003F
:10293000616801280CD0B1F5827F07D102E0022046
:10294000BDE8F88FA16809B9042801D00227C2E0C8
:10295000BBF1000F27D0BAF1000F24D01DB394F8BB
:102960005100042802D0052084F851000020606541
:10297000C4F838A0E587A587C4F830B0E586A586F9
:102980002064606420680168490603D4016841F04E
:1029900040010160E068B0F5006F606805D0E8B301
:1029A000012D46D07FE0012795E008B1012D39D1F6
:1029B000206B21680088C860206B801C2063E08E3B
:1029C000401EE0862EE02068816889070FD5E18EE1
:1029D00069B1B9F1010F0AD1216B0988C160206B7F
:1029E000801C2063E08E401EE0864FF000092068C6
:1029F0008168C9070CD0E18F51B1C068A16B088014
:102A0000A06B801CA063E08F401EE0874FF001099F
:102A1000FFF774F9A0EB0800B04200E009E001D331
:102A2000701C50D1E08E0028CDD1E08F0028CAD193
:102A30003FE0206B216800780873206B401C206306
:102A4000E08E401EE0862EE02068816889070FD561
:102A5000E18E69B1B9F1010F0AD1216B09780173D7
:102A6000206B401C2063E08E401EE0864FF0000982
:102A700020688168C9070CD0E18F51B1C068A16B93
:102A80000870A06B401CA063E08F401EE0874FF0F1
:102A90000109FFF733F9A0EB0800B04202D3701C24
:102AA00001D010E07EB1E08E0028CDD1E08F00286B
:102AB000CAD142463146204601F02CFC28B10127FC
:102AC0002020606507E0032705E0A06818B92068AA
:102AD000C16880680090012084F85100002084F8CB
:102AE000500038462CE77047704710B5040003D0FB
:102AF00094F83D0010B107E0012010BD002084F8DB
:102B00003C00204600F01EF8022084F83D00211D04
:102B1000206801F0F9FC012084F8460084F83E00AA
:102B200084F83F0084F8400084F8410084F84200B3
:102B300084F8430084F8440084F8450084F83D009C
:102B4000002010BD08B500680649884208D1064833
:102B5000016841F400310160006800F40030009029
:102B600008BD0000004401404438024090F83D1088
:102B7000012901D001207047022180F83D10016831
:102B8000CA6842F00102CA6000681149884214D044
:102B9000B0F1804F11D00F4988420ED00E498842C3
:102BA0000BD00E49884208D00D49884205D00D4906
:102BB000884202D00C49884204D1816801F00701A3
:102BC000062903D0016841F001010160002070472F
:102BD000000001400004004000080040000C0040DC
:102BE000000401400040014000180040704770B5EB
:102BF0000446006801694FF00005C943890715D4F0
:102C0000C168C943890711D4E91E016101202077F9
:102C1000206880698007204602D0FFF7E7FF04E0C4
:102C200000F0C2F8204600F054F9257720680169C9
:102C3000C943490717D4C168C943490713D46FF082
:102C400004010161022020772068806910F4407F30
:102C5000204602D0FFF7CAFF04E000F0A5F82046A6
:102C600000F037F9257720680169C943090716D4B0
:102C7000C168C943090712D46FF00801016104203B
:102C800020772068C0698007204602D0FFF7AEFF9A
:102C900004E000F089F8204600F01BF92577206851
:102CA0000169C943C90617D4C168C943C90613D409
:102CB0006FF010010161082020772068C06910F4CE
:102CC000407F204602D0FFF791FF04E000F06CF84F
:102CD000204600F0FEF8257720680169C943C9073E
:102CE00008D1C168C943C90704D1891E01612046C2
:102CF00000F054F920680169C943090609D4C16884
:102D0000C943090605D46FF0800101612046FFF731
:102D1000EAFE20680169C943490609D4C168C9436C
:102D2000490605D46FF040010161204600F040F9EA
:102D300020680169C94389060BD4C168C943890663
:102D400007D46FF0200101612046BDE87040FFF715
:102D5000CBBE70BD10B586B0044614216846FDF7A1
:102D6000CBFB0E492068884215D10D48016841F01F
:102D7000200101600068012100F020000590402042
:102D800000900220CDE901010390032004906946E0
:102D90000448FEF7B5FE06B010BD00000044014037
:102DA0003038024000140240704770B5044690F875
:102DB0003C0000260D4601280FD0012084F83C007D
:102DC0006AB1042A1DD0082A2FD00C2A3FD0012630
:102DD000002084F83C00304670BD022070BD2068A1
:102DE00001F004FC2068816941F0080181612068DC
:102DF000816921F004018161206881692A69114398
:102E000011E0206801F022FC2068816941F4006132
:102E100081612068816921F4806181612068816914
:102E20002A6941EA02218161D2E7206801F044FC6D
:102E30002068C16941F00801C1612068C16921F0C1
:102E40000401C1612068C1692A69114311E0206849
:102E500001F066FC2068C16941F40061C16120682D
:102E6000C16921F48061C1612068C1692A6941EAB0
:102E70000221C161ACE710B5040003D094F83D0015
:102E800010B107E0012010BD002084F83C0020466E
:102E900000F01EF8022084F83D00211D206801F09A
:102EA00033FB012084F8460084F83E0084F83F009C
:102EB00084F8400084F8410084F8420084F843001C
:102EC00084F8440084F8450084F83D00002010BDDB
:102ED0007047704710B50446022249B104290ED04C
:102EE000082913D094F84100012816D0012010BD04
:102EF00094F83E000128F9D184F83E200FE094F8C0
:102F00003F000128F2D184F83F2008E094F8400007
:102F10000128EBD184F8402001E084F8412001220F
:102F2000206801F055FB16492068164A884201D0F6
:102F3000904203D1436C43F40043436420688842C9
:102F400013D0B0F1804F10D00F4988420DD00F49F7
:102F500088420AD00E49884207D0904205D00D49D8
:102F6000884202D00C49884204D1816801F00701EF
:102F7000062903D0016841F001010160002010BD65
:102F8000000001400004014000040040000800402F
:102F9000000C004000400140001800400068034958
:102FA000884201D1FEF7BEBF704700000004004018
:102FB0007047704710B504460068406994F83D10AA
:102FC000C0F3C010212911D180B12068143050E81D
:102FD000001F21F0800140E80012002AF5D1606B4B
:102FE00008B1FEF77EFB204601F064FC20684069D2
:102FF00094F83E10C0F38010222911D180B12068CE
:10300000143050E8001F21F0400140E80012002A6F
:10301000F5D1A06B08B1FEF764FB204601F023FC5C
:10302000002010BD70470000F8B50168044608682C
:10303000CA684B6910F00F0F4FF0000559D003F02C
:10304000010602F49077374365D0C10705D0D1055A
:1030500003D5216C41F001012164410705D5D90751
:1030600003D0216C41F002012164810705D5D90705
:1030700003D0216C41F004012164010707D502F05F
:103080002001314303D0216C41F008012164216CFF
:1030900000293AD0800604D5900602D5204601F0DA
:1030A00017FC20684069216CC0F38010090700D428
:1030B00060B3204601F0D7FB20684069400621D567
:1030C0002068143050E8001F21F0400140E8001251
:1030D000002AF5D1A06BA8B16C490165A06BFEF781
:1030E00049FB002811D0A06B016D01B0BDE8F04094
:1030F000084783060FD593060DD52046BDE8F84056
:1031000001F0E6BB2046FFF78DFFF8BD2046FFF734
:1031100089FF2564F8BD266B2023012E79D1C606D0
:1031200077D5D60675D50868486800904869400686
:1031300040D5A16B086840680004000CEAD0A28D5D
:103140008242E7D9E085C869B0F5807F2DD020683C
:103150000C3050E8001F21F4807140E80012002A72
:10316000F5D12068143050E8001F21F0010140E83B
:103170000012002AF5D12068143050E8001F21F019
:10318000400140E80012002AF5D184F83E30256362
:1031900020680C3050E8001F21F0100140E80012B8
:1031A000002AF5D1A06BFEF79CFAA08DE18D401AA4
:1031B00081B229E0A08DE18D401A81B2E08D002816
:1031C000A8D00029A6D020680C3050E8002F22F4A7
:1031D000907240E80026002EF5D12068143050E8A7
:1031E000002F22F0010240E80026002EF5D184F8DD
:1031F0003E30256320680C3050E8002F22F010028A
:1032000040E80023002BF5D12046FFF7D2FEF8BDA1
:10321000FFE705062BD5150629D594F83D00212892
:10322000F5D1A068B0F5805F01D12069B0B1206A06
:10323000411C2162216800784860E08C401E000437
:10324000000CE084E3D12068C16821F08001C160F6
:103250002068C16841F04001C160D8E7206A008859
:10326000C0F308004860206A801C2062E5E7400641
:10327000CDD55006CBD5CA68204622F04002CA60A0
:1032800084F83D3000F0EDF9C1E700007147000817
:1032900070B5040004D094F83D00002510B106E09C
:1032A000012070BD84F83C50204600F023F8242013
:1032B00084F83D002068C16821F40051C1602046B7
:1032C00001F066FB2068016921F4904101612068EA
:1032D000416921F02A0141612068C16841F400512F
:1032E000C1602564202084F83D0084F83E00002061
:1032F00070BD00002DE9F04F87B0044614216846E8
:10330000FDF7FAF8A648DFF894821438D4F800C024
:10331000A34B022103224027002506154FF0070981
:10332000C44574D1D3F800C0AA464CF0100CC3F8C1
:1033300000C01B6803F010030593036843F0020309
:103340000360036803F002030593036843F001037D
:1033500003600068884600F0010005908020CDE9F8
:103360000008CDE9025293466946CDF810908D4889
:10337000FEF7C6FB7010CDE90008CDE9025B694697
:10338000CDF810908848FEF7BBFBDFF82492874900
:1033900048464FF00068C9F80010C0E90185C0E94F
:1033A0000356C9F81450C9F81850C9F81C50C9F888
:1033B0002050C9F82450FEF7BFFA08B1FDF772FD9E
:1033C0007B4DC4F8389079486035C9F838403030C2
:1033D000AF60C5E90008C5E903A6C5F814A0C5F8A3
:1033E00018A0C5F81CA0C5F820A02846C5F824A040
:1033F000FEF7A2FA08B1FDF755FD6563002205212D
:103400002520AC63FEF726FE252062E0FFE7DFF80B
:10341000A4814FF4807BC44560D1614BAA461B1F39
:10342000D3F800C04CF4802CC3F800C01B6803F430
:1034300080230593036843F004030360006800F0F1
:10344000040005904FF440608DE82300CDE9032986
:1034500069465948FEF754FBDFF85491574909F182
:10346000C00948464FF00068C9F80010C0E901855E
:10347000C0E90356C9F81450C0E9065B4FF4403B5D
:10348000C9E908B5FEF758FA08B1FDF70BFD4C4D38
:10349000C4F838904948C9F838403030AF60C5E9C1
:1034A0000008C5E903A6C5F814A0C5F818A0C5E929
:1034B00007AB2846C5F824A0FEF73EFA08B1FDF791
:1034C000F1FC6563002205212720AC63FEF7C2FDF5
:1034D0002720FEF7B1FD07B0BDE8F08FDFF8E480EC
:1034E000C445F8D1D3F800C04CF0200CC3F800C09C
:1034F0001B6803F020030593036843F04003036057
:10350000006800F0400005904FF484408DE82300EF
:103510000820CDE9032069462B48FEF7F1FADFF8D1
:10352000A090224909F16009603948464FF0206AAD
:10353000C9F80010C0E901A5C0E90356C9F8145044
:10354000C0E9065BC9F82050B046C9F82450FEF720
:10355000F3F908B1FDF7A6FC194EC4F83890C0364F
:10356000C9F83840C6E90275C6E90485B5610F4857
:10357000F561356218307562C6E9000A3046FEF71B
:10358000DBF908B1FDF78EFC6663002205214720B8
:10359000B463FEF75FFD47209BE700000010014089
:1035A00044380240000402400000024088640240A7
:1035B000F408002000480040000802402860024053
:1035C000140A0020001401400018024090F83E3018
:1035D000202B0ED159B152B190F83C30012B08D0BC
:1035E000012380F83C300023036301F057BA012027
:1035F000704702207047000010B5006813498842E8
:1036000022D11348FFF7D6FC1148806B0068406850
:103610001049C0F1800088700F480B7802789A42F8
:1036200012D1427849788A420ED10C4950F82F2F96
:103630000A6042684A6080688860BDE81040802265
:1036400005490348FFF7C2BF10BD0000001001404C
:1036500028080020D80000205003002084480020C3
:1036600070477047FEE700002DE9F04100262DED80
:10367000048B44F6206743E0254AA2F11005291D7A
:10368000101DFDF771F8686906F062FC9FED218B53
:1036900053EC182B06F066F905F1780441EC190B90
:1036A000206806F055FC53EC192B06F067FB05F07B
:1036B0007DFE2060A86906F04BFC53EC182B06F049
:1036C00051F941EC190B606806F042FC53EC192BE0
:1036D00006F054FB05F06AFE6060E86906F038FC0D
:1036E00053EC182B06F03EF941EC180BA06806F0DD
:1036F0002FFC53EC182B06F041FB05F057FEA060A1
:103700003046761CB842B7DBBDEC048BBDE8F081D7
:10371000F84900202D431CEBE2360A3F08B507208C
:1037200000E0642004F062FBFDF706F80028F8D101
:10373000714A0092A2F11009101D09F1040183469B
:10374000FDF712F8FFF790FF4A46A2F14001A1F100
:103750000C0004F08DF9DFED690A9FED690A694AF2
:10376000002109F1300000F0B7FCA9F13402A2F108
:103770000C0101F11800FCF733FFA9F14007A7F194
:10378000180597ED000AA5F10C0685ED000AA5F1D4
:10379000180886ED000A88ED000A97ED010A00205E
:1037A00085ED010A86ED010A88ED010A97ED020A0E
:1037B00085ED020A86ED020A88ED020A04F04CFB50
:1037C00005F0D0FC504C102160625048C161FEF7FA
:1037D000B5FF08B1FDF766FB4B4908223431A1F172
:1037E000080000F011FD0120E0704FF0FF3A514653
:1037F000012005F0D3F90128F9D12078400708D538
:10380000207820F0040020703F4859463530FCF7FE
:1038100063FF607840070BD5607820F0040060708B
:10382000354A09F104011032A2F12A00FCF70AFF1F
:10383000A07840070CD5A07820F00400A070324892
:1038400000992A30FDF76AF899ED040A04F0E6F9C8
:10385000294A103AA2F14001A1F10C0004F008F944
:1038600096ED000ADFED2A2A88ED000AD5ED000A60
:103870009FED281AC6ED000A60EEA21ADFED260AB7
:103880001D4840EE011A97ED000A5C3840EE201A00
:10389000C5ED001A96ED013A88ED013A95ED010A61
:1038A00086ED010A20EE222A97ED010A03EE012A95
:1038B00000EE202A85ED012A96ED023A88ED023AC3
:1038C00095ED020A86ED020A60EE222A97ED020AC1
:1038D00043EE012A40EE202AC5ED022A90EC030AAD
:1038E000243000F071FA044B203B1A1F111FA1F184
:1038F000100004F043F87AE7F84900200080894579
:1039000000A08C45E4A1000840010020C80600206A
:103910005AF8F63F5D896EBFD5A9183B0F4810B520
:103920000D4901600321416000214FF410228160A4
:10393000C0E903124FF400124261017641768176AC
:10394000C17601774177FDF728FD002803D0BDE857
:103950001040FDF7A7BA10BD006400402406002007
:103960000F4810B50D4901600321416000214FF45B
:1039700010228160C0E903124FF400124261017607
:1039800041768176C17601774177FDF706FD002803
:1039900003D0BDE81040FDF785BA10BD00680040B7
:1039A0004C060020294808B5016841F480010160F7
:1039B000016801F480010091016841F40011016087
:1039C0000068002200F40010009005210C20FEF792
:1039D00041FB0C20FEF730FB002205210E20FEF7F4
:1039E00039FB0E20FEF728FB002205213920FEF7C7
:1039F00031FB3920FEF720FB002205213A20FEF79B
:103A000029FB3A20FEF718FB002205213B20FEF798
:103A100021FB3B20FEF710FB002205214420FEF78E
:103A200019FB4420FEF708FB002205214520FEF784
:103A300011FB4520FEF700FB002205214620FEF782
:103A400009FBBDE808404620FEF7F6BA30380240D0
:103A500010B596B01C2211496846FCF71BFD0021E9
:103A6000684604F0CFF90E4C0C491C22A0601C31B2
:103A700007A8FCF70FFD002107A804F0C3F90749C8
:103A800020601C2238310EA8FCF704FD00210EA88E
:103A900004F0B8F9606016B010BD00005CA1000829
:103AA000140000202DE9F04F87B014216846FCF780
:103AB00023FD59484FF0000B016841F002010160FD
:103AC000016801F002010591016841F040010160C7
:103AD000016801F040010591016841F001010160B8
:103AE000016801F001010591016841F008010160E0
:103AF000016801F008010591016841F004010160CD
:103B0000016801F004010591016841F08001016044
:103B1000016801F080010591016841F02001016018
:103B200000683E4F00F020000590012240213846F9
:103B3000FEF7DEF80122DFF8E880960231464046C3
:103B4000FEF7D6F8DFF8DC90012210214846FEF798
:103B5000CFF8DFF8D4A0012241F201015046FEF770
:103B6000C7F801244020CDE9000402946946384694
:103B70000394FDF7C5FF09204FF48815CDE9000532
:103B8000694602943846FDF7BBFFCDE90064CDE9F4
:103B9000024B69464046FDF7B3FF1020CDE9000413
:103BA0000226CDE9024669464846FDF7A9FF3020C6
:103BB000CDE90005694602941C48FDF7A1FF2003EA
:103BC000CDE900040294694650460394FDF798FF3E
:103BD000CDE902460094694650460194FDF790FFF6
:103BE000062100220846FEF735FA0620FEF724FAE1
:103BF000002205210A20FEF72DFA0A20FEF71CFA02
:103C0000002205211720FEF725FA1720FEF714FAE7
:103C100007B0BDE8F08F00003038024000180240C5
:103C2000001C024000000240000402400008024064
:103C30000D4810B50B4901600C49416000214FF45B
:103C400080428160C0E9031241618161C16101620A
:103C5000FEF75AF8002803D0BDE81040FDF722B95E
:103C600010BD0000005C004074060020801A0600B1
:103C7000104810B50E4901604FF482714160002177
:103C800002228160C0E90312012242615202826174
:103C90001022C0E90721416281620A21C162FEF758
:103CA0004DFD002803D0BDE81040FDF7FBB810BD66
:103CB00000300140C806002010B588B01C216846BD
:103CC000FCF71AFC144813490024C0E900144FF60D
:103CD000FF71C0E9024104618461FEF706FF08B18B
:103CE000FDF7E0F80C48FFF7C6F808B1FDF7DAF881
:103CF0006020CDE90004029400226946064804943D
:103D0000FFF753F808B1FDF7CDF80348FFF722F8A5
:103D100008B010BD00440140E00700200C4810B579
:103D20000A4901604FF4E1314160002181600C22B9
:103D3000C160C0E904128161C161FFF7A9FA0028DE
:103D400003D0BDE81040FDF7ADB810BD0010014034
:103D5000280800200C4810B50A4901600B49416051
:103D6000002181600C22C160C0E904128161C1613F
:103D7000FFF78EFA002803D0BDE81040FDF792B897
:103D800010BD0000004800406C080020A086010023
:103D90000C4810B50A4901604FF4E131416000213F
:103DA00081600C22C160C0E904128161C161FFF72A
:103DB0006FFA002803D0BDE81040FDF773B810BDBE
:103DC00000140140B0080020F5EEC01AB0EE413AF0
:103DD000F0EE603AB0EE404AF1EE10FA00B502465D
:103DE00009D1B5EEC02AF1EE10FA04D1F5EEC02AE1
:103DF000F1EE10FA78D021EEA10A02EE020A02EEEC
:103E0000A20A03F049FF21EE805A62EE004A92EDC9
:103E1000011AD2ED030A22EE800AD2ED002A21EE29
:103E2000202AD2ED021A22EE811A5C4802EEE12A23
:103E300001EEA01AF6EE001A52EEA21A40EEA01AF7
:103E400060EE020A64EEA12A45EE610A40EE412AC4
:103E500025EE010A90ED041A04EEC20AB5EEC01A6E
:103E6000F1EE10FA2CDD90ED041AD0ED051A21EEDA
:103E7000222A9FED4B1A42EE011AC0ED051AD0ED31
:103E8000041A21EEA02AD0ED061A42EE011AC0ED66
:103E9000061AD0ED041A21EE802AD0ED071A42EE60
:103EA000011AC0ED071A90ED051A34EE014A90EDA3
:103EB000061A73EE813A90ED071A33EE013A07E0E5
:103EC0009FED381A80ED051A80ED061A80ED071A6D
:103ED00090ED031A01EE224A90ED031A41EE203ACA
:103EE000D0ED030A00EE803A9FED2F0AD2ED021AC0
:103EF00024EE002A63EE802A23EE001A92EC020AD6
:103F000092ED033A60EEC23A41EEE23A43EE413AB4
:103F100073EE804A60EE023AC2ED004A41EE813A09
:103F200043EE623A33EEA04A60EE223A20EE010AF6
:103F300082ED014A40EEC13A00EEA20A43EE023A97
:103F400001EEC20A73EEA13A70EE030A24EEA40A4F
:103F5000C2ED023AC2ED030A04EE040A03EEA30A1C
:103F600000EEA00A03F098FED2ED000A60EE800A8F
:103F7000C2ED000AD2ED010A60EE800AC2ED010A2C
:103F8000D2ED020A60EE800AC2ED020AD2ED030A07
:103F900020EE800A82ED030A00BD000040010020EF
:103FA0006F12833A000000006F12033AFEE7FEE74B
:103FB000A0B1D0ED101AC0ED111A90ED0F1A80EDDE
:103FC000101AC0ED060A80ED070A30EEC00A80ED37
:103FD0000F0A017829B101293BD078E09FED3D0A15
:103FE0007047D0ED010A60EE801AC0ED091AD0EDDD
:103FF0000A0A90ED022A42EE000A30EE410AC0EDB4
:104000000A0A90ED0D2A80ED0E2A90ED0C2A80ED23
:104010000D2A80ED0C0A90ED031A21EE001A80EDB6
:104020000B1A90ED050AF4EEC00AF1EE10FA09DC65
:10403000B1EE400AF4EEC00AF1EE10FA02D390EDB0
:104040000A0A01E080ED0A0A31EE800A30EE010A28
:104050002BE070EE410A90ED012A20EE822A80EDDD
:10406000092AD0ED020A60EE800AC0ED0A0AD0EDFE
:104070000D2A72EE200AC0ED0E2AD0ED0C2AC0EDFA
:104080000D2AF0EE002A01EE620A30EE210A80EDE0
:104090000C0A90ED031A21EE000A80ED0B0A30EEB7
:1040A000800AD0ED080A30EE200A80ED080AD0ED33
:1040B000040AB4EEE00AF1EE10FA06DCF1EE600A52
:1040C000B4EEE00AF1EE10FA01D2C0ED080A90ED6C
:1040D000080A704700000000002828D0002A26D0D7
:1040E000017092ED001A80ED011A92ED011A80ED37
:1040F000021A92ED021A80ED031A80ED040A9FED78
:104100000C0AC0ED050A80ED0E0A80ED0D0A80ED67
:104110000C0A80ED080A80ED0B0A80ED0A0A80ED9A
:10412000090A80ED110A80ED100A80ED0F0A704730
:10413000000000002DE9F74F8E462F4908680368FC
:1041400023F0010303602D4803681C6824F0010478
:104150001C600B681C68E407F7D103E01C6824F0BE
:1041600001041C6003681C68E407F7D1244F254D47
:10417000DFF88CC04C3FDFF88CB00C68DFF884901F
:10418000B83D4FF40016A7F1040AABF1600B64458B
:1041900001D93E6009E04C4502D9CAF8006004E04C
:1041A0005C4501D9EE6000E0AE60D0F800804FF0D1
:1041B0000066E04501D93E6009E04B4502D9CAF8E6
:1041C000006004E05B4501D9EE6000E0AE60C4F839
:1041D0000CE00468009BE3600B685A6003685A6057
:1041E00009680A6842F001020A600068016841F04B
:1041F00001010160BDE8FE8F80070020200700203C
:1042000058640240B86002402DE9F04F83463448BC
:1042100003685C6844F002045C6003685C6844F016
:1042200001045C600068036843F0400303602D48AC
:1042300003681C6824F001041C6003681C68E40720
:10424000F7D1294E294C284D4C3EDFF8A0A0274F2E
:10425000B83C4FF4001CA6F10409AAF1600AAB4275
:1042600002D9C6F800C00BE0BB4202D9C9F800C0B1
:1042700006E0534502D9C4F80CC001E0C4F808C0F8
:10428000DFF86CC0C3F808C00368D96001684A60F1
:104290000068016841F010010160164801680B6870
:1042A00023F001030B6001680B68DB07F7D14FF0C7
:1042B0000063A94201D9336009E0B94202D9C9F8C3
:1042C000003004E0514501D9E36000E0A360C1F88B
:1042D00008C00368C3F80CB000684260BDE8F08F06
:1042E000C80600208007002058640240B8600240E1
:1042F0000C300140200700200148FEF7A1B9000062
:10430000C806002010B5806B0021C187C186FEF76A
:1043100095F910BD38B504461248134B0068B0FB40
:10432000F3F04FF47A73584300906068B0F5827FE1
:104330000DD10B46009200228021204600F016F895
:1043400070B1606D40F020006065032038BD0098BA
:1043500030B1401E009020688068C0430006F6D54A
:10436000002038BD3000002000366E012DE9F843F2
:104370001E46914688460446089DFDF7BFFC401B3B
:10438000351AFDF7BBFC074625480068C0F3CB3063
:10439000684338E0701C37D0FDF7B0FCC01BA84262
:1043A00003D215B1009860B32CE02068416821F079
:1043B000E00141606068B0F5827F0BD1A068B0F584
:1043C000004F02D0B0F5806F04D12068016821F061
:1043D00040010160A06AB0F5005F09D12068016862
:1043E00021F4005101602068016841F4005101602E
:1043F000012084F85100002084F850000320BDE81B
:10440000F8830025401E00902068816838EA01008A
:1044100004D000214945BDD10020F0E70121F9E792
:1044200030000020012003F0E1FCFBE710B5502034
:1044300080F31188BFF34F8FBFF36F8F04F0E2FE5C
:1044400018B104494FF080500860002080F31188B3
:1044500010BD000004ED00E030B593B03021684697
:10446000FCF74AF814210CA8FCF746F81D48002573
:10447000016841F080510160006800F080501190A7
:104480001948016841F4804101600068022400F489
:104490008040119001200090000401908001CDE93E
:1044A000064006200890A820CDE9090404200B90BE
:1044B0006846FDF70DFF08B172B6FEE70CA90F20A4
:1044C00081E831004FF4A0500F904FF480501090CD
:1044D00005210CA8FDF7F0FD002801D072B6FEE71B
:1044E00013B030BD403802400070004002480168FF
:1044F00041F470010160704788ED00E00148FEF76B
:1045000076BB0000340B0020F0B50268254C264D28
:10451000264E274F274B4FF0804CA04209D06045D4
:1045200007D0A84205D0B04203D0B84201D098428B
:1045300004D122F0700E4A6842EA0E02A0421BD05B
:10454000604519D0A84217D0B04215D0B84213D058
:10455000984211D0184DA8420ED0184DA8420BD049
:10456000174DA84208D0174DA84205D0164DA842B5
:1045700002D0164DA84203D122F44075CA682A43DE
:104580004D6922F080022A4302608A68C2620A688A
:104590008262A04201D0984201D1096901630121E0
:1045A0004161F0BD000001400004004000080040EF
:1045B000000C004000040140004001400044014064
:1045C0000048014000180040001C0040002000404E
:1045D00010B501F01F030121046A99408C43046265
:1045E000016A9A401143016210BD0000F0B5026AF1
:1045F00022F001020262036A42688469124E24F0CA
:1046000073050C682C4323F002058B682B430D4D7A
:10461000A84201D0B04205D123F00807CB683B4344
:1046200023F00403A84201D0B04205D14D6922F421
:10463000407215438A692A43426084614968416334
:104640000362F0BD0000014000040140F0B5026AC1
:1046500022F010020262026A436884690D6824F441
:10466000E64444EA05248D6822F0200242EA05125D
:104670000F4D104EA84201D0B04206D1CF6822F0B3
:10468000800242EA071222F04002A84201D0B04262
:1046900007D14D6923F4406343EA85038D6943EAFA
:1046A000850343608461496881630262F0BD000054
:1046B0000000014000040140F0B5026A22F480725B
:1046C0000262026A4368C46922F4007224F073052E
:1046D0000C68124E2C438D6842EA05220E4DA8420A
:1046E00001D0B04206D1CF6822F4006242EA07222C
:1046F00022F48062A84201D0B04207D14D6923F470
:10470000405343EA05138D6943EA05134360C461CE
:104710004968C1630262F0BD00000140000401402D
:1047200030B5026A22F480520262046A4268C369A8
:104730000D6823F4E64343EA05238D6824F400540E
:1047400044EA0534084DA84202D0084DA84204D1DD
:104750004D6922F4804242EA85124260C361496891
:104760000164046230BD000000000140000401400B
:1047700010B5806B0021C185C184FEF753FC10BDCC
:1047800070B5846B2068406994F83D10C0F3C01088
:104790000025212904D118B1E584204600F08AF8CB
:1047A0002068406994F83E10C0F38010222904D19B
:1047B00018B1E585204600F056F8206C40F0100056
:1047C00020642046FEF72EFC70BD10B50146806BBC
:1047D00009680968C9052FD40021C18501680C3119
:1047E00051E8002F22F4807241E80023002BF5D11C
:1047F0000168143151E8002F22F0010241E8002342
:10480000002BF5D10168143151E8002F22F040024D
:1048100041E80023002BF5D1202180F83E10016BE8
:10482000012909D101680C3151E8002F22F0100252
:1048300041E80023002BF5D1016B012902D0FEF7DE
:10484000DBFE10BD818DFEF7B4FB10BD10B5806B93
:10485000016B012902D0FEF703FF10BD818D4908CD
:10486000FEF7A7FB10BD01680C3151E8002F22F4C0
:10487000907241E80023002BF5D10168143151E812
:10488000002F22F0010241E80023002BF5D1016B3B
:10489000012909D101680C3151E8002F22F01002E2
:1048A00041E80023002BF5D1202180F83E100021A3
:1048B0000163704701680C3151E8002F22F0C002FB
:1048C00041E80023002BF5D1202180F83D107047EE
:1048D00008B590F83E10222901D0022008BD826858
:1048E0004FF480539A4201D1016921B1816A9A4201
:1048F0001BD04AB10AE00268816A5268C2F308021A
:104900000A80816A891C08E0026972B102685268F3
:1049100002F07F020A70816A491C8162C18D491EC2
:104920000904090CC18503D019E002685268F1E757
:104930000168CA6822F02002CA600168CA6822F4CD
:104940008072CA6001684A6922F001024A6120212E
:1049500080F83E10016B012903D0FEF74DFE0020C8
:1049600008BD0021016301680C3151E8002F22F0DD
:10497000100241E80023002BF5D101680A68D20635
:1049800002D50A6849680091818DFEF712FBE6E7BF
:1049900070B5044600680169E26821F44051114392
:1049A00001612169A068E269084361691143084314
:1049B0002168CA6849F20C639A430243CA602068BE
:1049C0004169A26921F44071114341613149206874
:1049D000884202D03049884202D1FDF737FC01E01D
:1049E000FDF724FCE2690023192164253226B2F583
:1049F000004F626828D0A0FB0101930F9200FBF7E3
:104A0000B3FC0146B0FBF5F06FF01802504301EB28
:104A1000800006EB0010B0FBF5F000F0F002B1FBF7
:104A2000F5F002EB0012B1FBF5F06FF018035843FC
:104A300001EB800006EB0010B0FBF5F000F00F007A
:104A400021681044886070BDA0FB010192185B4191
:104A5000FBF78AFC0146B0FBF5F00201B1FBF5F073
:104A60006FF01803584301EB800006EBC000B0FB69
:104A7000F5F000F0F80002EB4002B1FBF5F058430E
:104A800001EB800006EBC000B0FBF5F000F0070082
:104A9000D6E70000001001400014014038B58162E3
:104AA00082850025134604460564222084F83E00D2
:104AB000A26B1C48D063A26B1B481064A26B1B48FE
:104AC000D064A06B0A4605652168A06B091DFCF740
:104AD0009DFF206801684068009084F83C50206980
:104AE00048B120680C3050E8001F41F4807140E864
:104AF0000012002AF5D12068143050E8001F41F060
:104B0000010140E80012002AF5D12068143050E875
:104B1000001F41F0400140E80012002AF5D10020BA
:104B200038BD0000CB4700084D4800088147000809
:104B300010B50448FEF778FABDE810400148FCF7CC
:104B40007DB900002808002010B50448FCF78EF954
:104B5000BDE810400148FEF767BA00006C0800206D
:104B60000C4808B501680A684A680092CA6842F0B1
:104B70001002CA6001684A6942F040024A6112218B
:104B800000910168044B806BA3F11802091DFBF72B
:104B9000E1FF08BD6C080020A84800202DE9F04185
:104BA00004460088584DC0F30A03584F2B806078A4
:104BB000A178C00840EA4110C0F30A066E80A078D0
:104BC000E178800940EA81002179A3F5806340EA19
:104BD0008120C0F30A01A98020796279400840EA67
:104BE000C210C0F30A02EA806079A6F58066C0F3BD
:104BF0000110A8726079A1F580618009E872E088EF
:104C0000A8812089E88160892882207BA874607B44
:104C1000E874E089A882208A2B806E80A980A2F5A2
:104C20008062EA80A0F5806028810020215C3954F0
:104C3000401C0728FADD3321344802F021FB08200C
:104C40003A18215C401C02F8081C0F28F8DD3421BA
:104C50002E4802F015FB207C3870607C7870A07CB8
:104C6000B8702B48294EB0F90810B0F91820243E2E
:104C70001144B0F92820B0F93800104408444C2100
:104C800090FBF1F07080010AF97038710020F87122
:104C900035211E4802F0F4FAA07B00F00101B1803A
:104CA00000F00201F18000F00401318100F0080100
:104CB000718100F04001B18100F08001F18100F0CC
:104CC0001001318200F020007082A87C3070E87CF6
:104CD0007070A88A00F48071B18200F40071F182D2
:104CE00000F48061318300F40061718300F480512D
:104CF000B18300F40051F18300F48041318400F469
:104D000000407084BDE8F0816C480020C0000020A5
:104D1000D84800200148FEF787B90000B0080020FD
:104D200070B523480068800240D521494FF0F460F7
:104D3000083108601F4C207880070CD5207820F0BF
:104D400002002070207840F00400207001221146FB
:104D50001948FCF7CDFF6078184D80070CD56078B6
:104D600020F002006070607840F004006070012262
:104D700010212846FCF7BCFFA07880070CD5A0784E
:104D800020F00200A070A07840F00400A070012282
:104D900010212846FCF7ACFF02F0BCFE207840074B
:104DA00004D50748016841F00101016070BD0000B1
:104DB0000064024040010020000402400000024064
:104DC000103C0140FEE703B401984100009850EA0E
:104DD000C12018BF04204A0D18BF40F0010040F266
:104DE000FF72B2EB515F08BF40F00200012808BF1C
:104DF000052002B070474100080218BF04200A0EC7
:104E000018BF40F001004FF07F4232EA010108BFB5
:104E100040F00200012808BF052070470907090E6D
:104E2000002804DB00F1E02080F80014704700F057
:104E30000F0000F1E02080F8141D704710B54FF00E
:104E40000E402DED028BB0EE408A18EE104A00EBBA
:104E50004400B0F1506F4AD84FF0FC40B0EB440F23
:104E600022D2B0EEC80AF7EE000A30EEC00AF6EE23
:104E7000000A60EE208A18EE900A03F0CAFC01EEE8
:104E8000100A14F0004F1DBFDFED2D0A9FED2D0A13
:104E9000B1EE411ADFED2C0A08BF9FED2C0AF8EEA7
:104EA000001A21EE218A05E0DFED290A68EE088A62
:104EB000B0EE600A9FED271ADFED271A30EE080AE0
:104EC00048EE811A9FED251A08EEA11ADFED241A8B
:104ED00048EE811A9FED231A08EEA11A68EE281AEF
:104EE000BDEC028B01EE810A30EE200A10BD4FF0BE
:104EF000E440B0EB440F0CD918EE100AFFF77BFF2B
:104F0000042808BF01F076FEB0EE480ABDEC028B23
:104F100010BD4FF07F40B0EB440F07D2B0EE480A0F
:104F2000BDEC028BBDE8104001F056BE0120FBF73E
:104F300012FBBDEC028BBDE8104001F053BE000037
:104F40000000C9BF22AAFDB90000C93F22AAFD394D
:104F50000000000024FE1C3DC78AD83C1E67383D77
:104F60001B93993DAFAA2A3E70B59B482DED020BCD
:104F70002DED068B079D25F00044A04218DC9748D4
:104F8000844202DC0AD1069840B19DED060BBDECCF
:104F9000068B02B0BDE8704001F0DABD002DCCBF39
:104FA0009FED8F0B9FED900BBDEC068B02B070BD9B
:104FB0008F48A04215DD8F48A042D8BF4FF0FF3484
:104FC00058DD9DED060B51EC100BFFF7FCFE04289D
:104FD00008BF01F0F1FD9DED060BBDEC068B02B0A4
:104FE00070BD9DED060B51EC100B02F0BBFCCDE942
:104FF000060181489FED828BA0423CDD8248A042A1
:105000001FDD00249FED82AB9DED060B53EC1A2BA8
:1050100051EC100B04F0FCF99DED060B41EC190B63
:1050200053EC1A2B51EC100B04F09CFC53EC182B96
:1050300004F0A4FE53EC192B04F0A6FACDE9060106
:1050400049E09DED060B012453EC182B51EC100B9D
:1050500004F0DEF99DED060B41EC190B53EC182B17
:1050600051EC100B04F08AFE53EC192B04F08CFA6F
:10507000CDE906012FE06848A0421FDD02249FED24
:10508000689B9DED060B53EC192B51EC100B04F0B3
:1050900069FC53EC182B04F0BBF99DED060B41ECB9
:1050A000180B53EC192B51EC100B04F067FE53EC6A
:1050B000182B04F069FACDE906010CE09DED060B12
:1050C000032453EC102B9FED580B51EC100B04F004
:1050D0005BFACDE906019DED060B53EC102B51EC6C
:1050E000100B04F03FFC41EC180B53EC182B04F0B0
:1050F00039FC41EC190B4E480621B0EE490AF0EE9E
:10510000690A784401F0F8FB53EC182B51EC100BB2
:1051100004F028FC41EC180B4648B0EE490AF0EECA
:10512000690A0521784401F0E7FB53EC192B51EC97
:10513000100B04F017FC41EC100B51EC180B53EC66
:10514000102B002C0EDA04F063F99DED061B53ECD6
:10515000112B04F007FC9DED061B53EC112B04F002
:1051600035FD35E004F054F99DED061B53EC112B91
:1051700004F0F8FB41EC100B2F48784400EBC4001E
:1051800090ED001B51EC100B53EC112B04F0F6FDCD
:105190009DED061B53EC112B04F0F0FD41EC100BC0
:1051A0002648784400EBC40090ED001B51EC100B36
:1051B00053EC112B04F00AFD41EC100B002DA2BFA3
:1051C000BDEC068B02B070BD51EC100B04F0E2F8A0
:1051D00041EC100B01E70000000010440000F07FDC
:1051E000182D4454FB21F93F182D4454FB21F9BFDD
:1051F0000000DC3F0000203E0000F33F0000000004
:10520000000000000000F03F0000E63F000000004A
:10521000000000000000004000800340000000008B
:10522000000000000000F83F000000000000F0BF98
:105230005251000008510000925000004A500000F6
:1052400070B54FF068422DED048BF0EE408A18EEF9
:10525000900AB0EE608A18EE101A02EB4003B3F128
:10526000654F3CBF02EB4102B2F1654F7DD200BFFA
:10527000C0F3C753C1F3C7529A1A1B2A09DD10F0B5
:10528000004F14BF9FED830A9FED830ABDEC048B92
:1052900070BD12F11A0F36DA11F0004F09D010F07C
:1052A000004F0CBF9FED7D0A9FED7D0ABDEC048B86
:1052B00070BD88EE889A19EE100AFFF79CFD04284D
:1052C00008BF01F097FC18EE900AFFF794FD054621
:1052D00018EE100AFFF78FFD044619EE100AFFF7CB
:1052E0008AFD042D18BF052D08D1042C18BF052CEC
:1052F00004D1002804BF0220FBF72DF9B0EE490AC3
:10530000BDEC048B70BD4200B2EB410F3AD910F0F6
:10531000004F19BFDFED630A9FED630ADFED630AFB
:105320009FED630AB0EE481A0A46B1EE688A80F033
:105330000041F0EE418A10460A1A5200B2F1807F15
:1053400034D2484010F0004FDFED5A1A9FED5A2A30
:105350001DBFBEEE001A70EEE10A30EE420AB6EE54
:10536000001A08BF70EEA10A00E040E008BF30EE6E
:10537000020AB0EE682A01EE482A08EE818AC2EEDF
:10538000081A15E011F0004F04BF9FED4C0AF0EE33
:10539000400AD1D010F0004F19BFDFED490A9FED50
:1053A000490ADFED490A9FED490AC5E7C8EE881AA8
:1053B00021EEA11A9FED462ADFED462A41EE022A90
:1053C0009FED452A01EE222ADFED442A41EE022A12
:1053D0009FED432ABDEC048B01EE222A21EE811AB7
:1053E00001EE020A30EE210A30EE200A70BD4FF0C5
:1053F0007F42B2EB400F28BFB2EB410F09D2F0EE73
:10540000480AB0EE680ABDEC048BBDE8704001F0BC
:10541000E6BB40EA01035B0008BF41F0FF410BD04F
:10542000B2EB400F08BFB2EB410F08D120F0804033
:1054300008EE900A21F0804108EE101A18E7B2EB4E
:10544000400F12BF5FEA410340F0FF4001F000410E
:105450003FF40EAFB2EB410F12BF5FEA400200F023
:10546000004041F0FF413FF403AF4A0092EA40039D
:105470003FF5FEAE002AACBF9FED1A0A9FED1A0A57
:1054800068EE808A28EE008A18EE900A18EE101A4C
:10549000EEE60000DB0FC9BFDB0FC93FDB0F494061
:1054A000DB0F49C00000C9BF22AAFDB90000C93FF7
:1054B00022AAFD390060ED3EC30ACE37000000008D
:1054C000000049C022AA7DBA0000494022AA7D3AC4
:1054D0002DAD65BD8FB8D53D0FB511BE61C84C3E31
:1054E000A8AAAABE0000804F0000802F0000000084
:1054F00010B52F499FED2C1B2DED020B84B00598A4
:1055000020F000408842D8BF9DED040B2DDD2949D5
:10551000884209D1049840B94FF00100FBF71BF80D
:1055200001F02AFB06B010BD05DB9DED040B01F078
:105530000FFB06B010BD68469DED040B00F008FFA0
:1055400010F0030004BF9DED021B9DED000B0CD07D
:1055500001280ED09DED021B9DED000B022817D0F7
:10556000012001F045FA06B010BD01F00DF906B0BA
:1055700010BD9DED021B9DED000B012001F038FADE
:1055800051EC100B03F006FF06B041EC100B10BD00
:1055900001F0FAF851EC100B03F0FCFE06B041EC00
:1055A000100B10BD00000000000000000000000013
:1055B000FB21E93F0000F07F2DE9F04D2DED040BBC
:1055C0002DED0E8B96B0DDE92550279CDDF890A0DF
:1055D00025F0004624F00048BAF1000F14BF012165
:1055E000002101EB4502FC4953184A1093422AD38B
:1055F000002814BF0123002303EB44030B44F749A5
:105600008B4220D358EA00019FEDF59B76D0DFF85E
:10561000D8B35D4503D1BAF1000F05D188E0BAF1E6
:10562000000F08BF002100D0012101EB450111F559
:10563000001F08D8002814BF0121002101EB4401FC
:1056400011F5001F0BD99DED261B9DED240B16B007
:10565000BDEC0E8B04B0BDE8F04D01F083BA00271D
:10566000002DBCBFE149884521DAE1498845A8BF42
:1056700002271CDAC3451ADCDE4901EB2851142944
:1056800008DDC1F1340220FA02F101FA02F282428D
:105690000DD108E058B9C1F1140228FA02F101FA5B
:1056A00002F2424503D101F00101C1F1020756EABD
:1056B0000A0124D1002C22DA002D18BF022F01D0BC
:1056C000012F0AD00220FAF746FF16B0BDEC0E8B70
:1056D00004B0BDE8F04D01F023BA0220FAF73BFF19
:1056E00001F01EFA51EC100B03F054FE41EC100BCC
:1056F00016B0BDEC0E8B04B0BDE8F08D18E09FED48
:10570000BEAB9FEDBF8B002871D1B848804522D138
:1057100005F1804010F5801008BFBAF1000F07D0E6
:10572000B3450ADC002CA8BF9DED260BE0DA0DE0A6
:10573000B0EE490AF0EE690ADAE7002C06DA9DEDD0
:10574000260B51EC100B03F025FE6FE0AE487844B9
:1057500090ED000BCCE7D8454DD1002C48DA2EB1A6
:1057600086423AD1BAF1000F42D126E0BAF1000FD9
:1057700013D00220FAF7EFFE01F00EFA8DED020BC6
:105780009DED240B8DED000B10EE900A039961F353
:105790001E0003909DED020BAAE78DED02AB9DED7F
:1057A000240B1AEE901A10EE900A8DED000B61F3A7
:1057B0001E0003909DED020B9AE78DED028B9DED8F
:1057C000240B18EE901A10EE900A8DED000B61F389
:1057D0001E0003909DED020B8AE709DA9DED240B74
:1057E00051EC190B53EC102B03F0CEFE1EE020E021
:1057F0009DED240B7CE786421BDAB4F1804F0DD07F
:10580000A4F10050B0F1FF5013D1002D11DB9DED3C
:10581000240B51EC100B02F0C5FF07E09DED240BAB
:1058200053EC102B51EC100B00F0C2BC41EC100BF0
:105830005EE79DED240B51EC100B02F093F8BAF1EA
:10584000000FCDE90E0142D19FED710B46B3A6F1D9
:10585000E040B0F17F600CD05E4538D1002D00DA19
:10586000A7B3022F0CBF01204FF0FF3004F013F854
:10587000DCE7002D01DD002C0DDA002D01DD002C10
:105880001FDB002D16DA002C14DB012F08BF9FED63
:10589000620B3FF42DAFB0EE4A0AF0EE6A0A27E73A
:1058A000022F18BF002D0CD0012F0AD1002DFFF6BA
:1058B0001FAF06E0002DB8BF002C08DA012F3FF41F
:1058C00017AFB0EE480AF0EE680A11E71BE00120BE
:1058D00000EBE57050EA070115D0791EB0EE498A59
:1058E000F0EE698A084308BF9FED4D8B4E480025B6
:1058F000804570DD4D494E48884514DDB0420DDBD2
:10590000002C19DB2FE00120FAF725FE16B0BDECC4
:105910000E8B04B0BDE8F04D01F02EB9B34502DCAA
:10592000002C09DC1FE0864202DA002C1BDA03E0BF
:105930005E452BDD002C16DD0220FAF70CFE01F08F
:105940002BF98DED020B53EC1A2B51EC180B04F0D4
:1059500009F8CDE900010399019861F31E00039055
:105960009DED020BC4E60220FAF7F5FD01F024F9E3
:1059700010EE901A18EE900A8DED020B8DED008B53
:1059800061F31E0003909DED020BB1E69DED0E0B41
:1059900053EC192B51EC100B04F0F0F99FED260B92
:1059A000CDE9080153EC102B9DED080B51EC100BC9
:1059B00003F0D8FF9FED221B53EC112B04F006F9E6
:1059C0009DED081B53EC112B03F0CCFF9FED1E1B2C
:1059D00053EC112B3CE08CE0FFFF1F00FFFF0F009A
:1059E000000000000000F03F0000F03F0000F07FEA
:1059F0000000404301FCFFFF000000000000F07FBA
:105A00000000000000000000EE4B0000000000005D
:105A10000000000000000080000000000000F0FF17
:105A2000000000000000F0BF0000E0410000F04373
:105A3000FFFFEF3F00000000000000000000D03F2B
:105A4000555555555555D53F000000000000E03F25
:105A500004F0BCF89DED080B41EC1A0B53EC102B35
:105A600051EC100B03F07EFF53EC1A2B03F07AFF7E
:105A700041EC1A0B9FEDFE0B53EC102B9DED080B28
:105A800051EC100B03F06EFF41EC1B0B9FEDFA0B7A
:105A900051EC1A0B53EC102B03F064FF41EC1A0B82
:105AA0009FEDF70B53EC102B9DED080B51EC100BF9
:105AB00003F058FF53EC1A2B04F060F941EC1A0B79
:105AC00051EC1B0B53EC1A2B03F0A2FC0690CDE912
:105AD00006519DED060B53EC1B2B51EC100B04F003
